:020000041000EA
:10000000784C00004D000010B5140010EB0D0010EE
:1000100000000000000000000000000000000000E0
:10002000000000000000000000000000A51A001001
:10003000000000000000000035160010D51F001061
:10004000AD24001019270010B92300100B480C49EB
:10005000016000200B490C4A0860091D9142FBD346
:100060000A4880470A480047FEE7FEE7FEE7FEE74A
:10007000FEE7FEE7FEE7FEE7FEE700000800FF10F0
:100080000000000080410000784C0000E5200010D6
:100090005121001030B50B460146002020220124DA
:1000A00009E00D46D5409D4205D31D469540491BAC
:1000B0002546954040191546521E002DF1DC30BDF5
:1000C00070B500242546002801DA012440420029A9
:1000D00001DA01254942FFF7DDFFAC4200D0404282
:1000E000002C00D0494270BD10B5431A934209D28A
:1000F0008318881803E0401E01785B1E1970521E99
:10010000F9D210BD03460B439B0703D009E008C991
:10011000121F08C0042AFAD203E00B780370401CB7
:10012000491C521EF9D210BDD2B201E00270401C2F
:10013000491EFBD270470022F6E710B513460A4667
:1001400004461946FFF7F0FF204610BDF8B50246F9
:100150004A40D40F42004B0052085B089A4202D238
:100160000246084611464A0023D0C30D4A00DDB2BC
:10017000120EAD1A202D35DA49020126490AF6057C
:100180008A19002C00D0524220214F1B1146B94041
:100190002A411018C20D9A4221D0002C17D0012DEF
:1001A00008DCDA05801AD20F8019D207DBB200F022
:1001B000BAF9F8BDDA05801A012340001B06C01801
:1001C00080185A428018CA0F1043490007E04908B6
:1001D000C2071143DA05801A80194008801800F020
:1001E0009AF9F8BD61000122511A001BF7E70122BC
:1001F000D2075140AAE70122D2075040A6E70246A3
:1002000070B54A40D30FDB0740002DD04A002AD0FA
:10021000010E140E000212020919400A520A841833
:10022000E50104465443000A120A2E045043A4195F
:100230004219200CC543AA18120C0125AD03521C0B
:10024000521912047F39240400D0521C104301D4E7
:100250004000491EC2B20C06C0092018401C4008CC
:10026000802A02D003E0002070BD40084000002931
:1002700000DA0020184370BDF0B51FB488B00B99A8
:100280000998002448400999C00F4900490809917C
:10029000C0070B990090490049080B9109990898EB
:1002A000A64608431CD00B990A98084318D0099811
:1002B00001244000420D4800410D09982405000327
:1002C000000B204309900B980003000B20430B9078
:1002D00050181C494018002201901446104605E0B1
:1002E000002001460DB0F0BD032801DA034600E00E
:1002F00003239C46C11A0AAE0AE05F0008ADED5B1D
:100300004F00F75B7D430027AA187C41491C5B1E08
:100310006145F2DD410004AB5A522104120C0A433C
:10032000240C401C0828DFDB0198029000997046DD
:1003300001910090059B049A0799069800F039F9FD
:10034000D0E700000DFCFFFFF0B50C465C4085B027
:10035000E40FE40703944C00002664085900944617
:10036000490802460296224321D062460A431ED023
:100370006200570D4A000E032303550D0124024667
:100380002C492405781B1B0B360B401823432643AE
:10039000614600901C46501AB44103D30098401C9B
:1003A000009002E0921800985B41002803DA0020D8
:1003B000014605B0F0BD002001210905074686462B
:1003C00011E064461D46141BB54106D36546521B19
:1003D000B341744607430C43A646CD07400849087D
:1003E000284392185B4105460D43EAD11046184355
:1003F00013D06046194650407140084306D060460D
:10040000101AB34106D20122002306E00022012384
:10041000DB0702E00122D243531000987446010525
:10042000381C6141029C039D0019694100F0B4F839
:10043000BFE70000FD030000C217C10F504010B518
:100440004018CA079623002100F06DF810BD000087
:100450000EB5C217C10F5040CA0740180021054B06
:100460000293019200910A460B4600F0A2F803B0F5
:1004700000BD000033040000C20F41004002012310
:10048000400ADB05D207090EC0187F2901DA0020D7
:100490007047962903DC9623591AC84001E0963923
:1004A0008840002AF4D040427047000070B5CD0F5C
:1004B0004A0009030123090B1B0519430B4BED07E8
:1004C0000024520D9A4201DA002070BD074B3433EC
:1004D0009A4203DC9A1A00F00DF802E00449511820
:1004E00088402C43F1D0404270BD0000FF03000063
:1004F000CDFBFFFF10B5202A04DB0846203AD04090
:10050000002110BD0B46D340D0402024A21A9140B8
:100510000843194610BD002904DA401C490001D1E6
:1005200040084000704770B40024050C05D1102429
:10053000000402D1002921D01124050E01D10002AE
:100540000834050F01D10001241D850F01D1800061
:10055000A41C002801DB4000641C002908D02025D1
:100560002E1B0D46F540A14000D001212943084330
:1005700001061B1B000ADB1D02D5002070BC704762
:10058000DB05181880180029F8DA401C4900F5D15D
:1005900070BC40084000704710B5002B08DA0024FA
:1005A000401C614192185B411A4301D14008400050
:1005B00010BDF0B51FB482B005460C0003D008464C
:1005C00001F09CFE02E001F099FE2030024600900E
:1005D0002146284600F03FF8049B059A04460F4642
:1005E00018431143084314D0184610431BD00098F9
:1005F00040210A1A18460599FFF77CFF05460E466A
:10060000009A0599049800F026F8084305D00120C7
:1006100004E02046394607B0F0BD0020C11705436D
:100620000E432C43374300990E986305401A790511
:10063000E40A00220C43FD0A0A3002D500200146DC
:10064000E9E70105101969410C9C0D9D00196941EC
:10065000FFF7A2FFDFE710B5202A04DB0146203AAE
:100660009140002010BD914020239C1A0346E34096
:100670001943904010BD000003B40148019001BD32
:100680003140000003B40148019001BD2140000049
:1006900003B40148019001BD5F400000006801689B
:1006A000012211430160704770B58907124B18246D
:1006B000C90E124D5201124E00280FD001280CD144
:1006C000586AA04308435862586A28401043586249
:1006D0003068012149040843306070BD186AA043A6
:1006E00008431862186A28401043186230680121D4
:1006F00009040843306070BD400014401F00FEFF35
:1007000000A0004006490122002805D0012802D19E
:10071000086B104308637047C86A1043C86270478B
:1007200000D00040F0B507250F266A4AAD06360214
:100730001C2300284FD1D46B4F89240C24043C4344
:10074000D463D46B8F78AC437F07FF083C43D463FA
:10075000D46A4F78B4433F073F0D3C43D462D46A18
:100760003701BC430F783F073F0C3C43D462D46A47
:100770000227BC430F79FF07BF0F3C43D462D46A02
:100780004F799C437F07FF0E3C43D462D46A2027F5
:10079000BC43CF78FF07BF0E3C43D462D46A4027E6
:1007A000BC438F79FF077F0E3C43D462D46A802715
:1007B000BC430F7AFF073F0E3C43D462D46A012743
:1007C0003F043C43D462D46A7F003C43D462D46B80
:1007D000D7043C43D463012852D13E4840300468DA
:1007E0004F89240C24043C4304600468AC438D7896
:1007F0006D07ED082C430460146B4D78B4432D074E
:100800002D0D2C431463146B0F252D03AC430D7871
:100810002D072D0C2C431463146B0225AC430D796A
:10082000ED07AD0F2C431463146B9C434B795B07AE
:10083000DB0E1C431463136B2024A343CC78E40722
:10084000A40E23431363136B4024A3438C79E40762
:10085000640E23431363136B8024A3430C7AE407D1
:10086000240E23431363136B0124240423431363D3
:10087000136B640023431363026843061A43026048
:100880000A78FF2401231448E404072A0FD8856A54
:100890001E466D012D0E964035432A06856A520983
:1008A000A54315438562826A0F252A4382624978EF
:1008B00007290ED8826A5201120E8B401A43110684
:1008C000826A4909A2430A438262816AF022114383
:1008D0008162F0BD00D000400000154070B55C069C
:1008E000640E284D002802D0012821D03DE0686B1D
:1008F0000126304368630220002A02D0012A0CD06E
:1009000033E06A6B82436A63A86B7F2212069043CE
:100910005A0652081043A86327E06A6B02436A63D1
:10092000A86B7F221204904322041043A8631CE0AA
:10093000686B0423184368630820002A02D0012A48
:100940000BD012E06A6B82436A63A86B7F221202AB
:10095000904322021043A86307E06A6B02436A6374
:10096000A86BC009C0012043A863686B1022104324
:100970006863686B602289079043490E0843686387
:1009800070BD000000D0004010B5074B074A084872
:100990008008934205D110BD411E890054585C5017
:1009A000401E0028F8D110BD20400000983A0010E9
:1009B00060010000F0B500200D49002382005218AC
:1009C0001360401C2028F9DB00200A4C0A4DE60089
:1009D000012781000A191660010149190B604B605B
:1009E0008B60CB601764401C0828F2DBF0BD000070
:1009F0000001204000002040000220408100044807
:100A0000012208180168D2071143016070470000F5
:100A10000000204000BF00BF00BF00BF00BF00BFFC
:100A200000BF00BF00BF00BF00BF00BF00BF00BFCE
:100A300000BF00BF7047704710B57F20FFF71CFE56
:100A400010BD000001490020886070470000FF10C1
:100A500000B50120FFF716FE02490148886000BD7D
:100A6000B7DA13B00000FF101FB50A46014668460A
:100A700000F054F90199009803910290029800281F
:100A800007D002984068039A012191408843029957
:100A900048601FBD10B500F00BF9002806D00168B2
:100AA0000722120291430160012010BD002010BDF9
:100AB0001FB514460A460146684600F02FF9019911
:100AC0000098039102900120022C06D0012C03D142
:100AD00003998840029948611FBD03998840029993
:100AE00008611FBDFFB585B0074615461E4638464E
:100AF000069900F0DDF80446394601A8069A00F090
:100B00000DF902990198049103900398002850D0A0
:100B1000002C4ED00120C0054110012D05D12268C6
:100B20000243226022688A432260022D05D1226896
:100B30008243226022680A432260032D05D1226885
:100B400082432260206888432060042D0CD10398E2
:100B50000169049A01209040039A8143116103992D
:100B600049698143039841610120000481004200EA
:100B7000002E08D123680343236023680B432360BE
:100B8000236893432360012E08D123680343236025
:100B900023688B432360236813432360022E08D10C
:100BA0002368834323602068884320602068904343
:100BB000206009B0F0BD7FB50446627821786846B0
:100BC00000F0ACF8019900980391029061782078C8
:100BD00000F06EF80299002968D0002866D0A2784B
:100BE0000121022A02D0012A06D00AE0039B0A460C
:100BF0009A40029B1A6104E0039B0A469A40029BBA
:100C00005A610122E578D2055310012D05D10568FE
:100C10001543056005689D430560E578022D05D103
:100C200005689543056005681D430560E578032D5B
:100C300005D105689543056002689A430260012268
:100C40001204267993005500002E08D10668164339
:100C5000066006681E4306600668AE430660267995
:100C6000012E08D106681643066006689E4306609A
:100C700006682E4306602679022E08D10668964340
:100C8000066002689A4302600268AA430260E07844
:100C900004280BD102980069039A9140029A884374
:100CA0001061029840698843029948617FBD000045
:100CB000034600208A00012B0AD0022B17D0032BF9
:100CC0001DD0042B03D1012921D8124810187047D8
:100CD000012903D80F48603810187047072904D835
:100CE000891E88000C49401870470020704707296A
:100CF00003D808484038101870470020704707296B
:100D000003D804482038101870470020704700208E
:100D10007047000060500040009000401CB5002368
:100D2000009301930124A407012909D01346083335
:100D3000022911D0114C032913D004291AD115E02E
:100D4000012A02D80094019214E0072A12D80C4913
:100D50000091921E01920DE0072A0BD80094019396
:100D600008E0072A06D80094019203E0012A01D87E
:100D7000009401930099019A06C01CBD0010004028
:100D80000040004010B51446FFF792FF002814D031
:100D900001680722120291436207520D114301605C
:100DA0000121C904052C04D002680A430260012015
:100DB00010BD02688A430260F9E7002010BD1FB52C
:100DC0000A4601466846FFF7A9FF0199009803917A
:100DD00002900298002807D002984068039A0121E7
:100DE00091400843029948601FBDFEE70848094941
:100DF000016009494160094981600949C1600949A7
:100E0000016109494161094981610949C16170472D
:100E100000400000B5140010EB0D0010A51A0010E2
:100E200035160010D51F0010AD2400101927001032
:100E3000B92300100A49012808D002280BD0032842
:100E400003D1486901221043486170474869042270
:100E50001043486170474869022210434861704757
:100E60000080004002480168012211430160704780
:100E70000080004001460020094A012907D00229CC
:100E800009D0032902D1D0690006C00F7047D0698C
:100E90008005C00F7047D069C005C00F70470000C3
:100EA0000080004010B50320FFF7E4FF00280FD0BA
:100EB0000320FFF7BFFF00210320FFF7EBFDBFF387
:100EC0004F8F05490348C860BFF34F8F00BFFDE750
:100ED00010BD00000400FA0500ED00E0F0B5059D2E
:100EE0000024002600270770C768BA18C260394A74
:100EF0005278002A6CD0C28802818288C2804288DF
:100F0000828043806200131802229A5E9619641C44
:100F1000E4B2042CF6D3304A16600423536094687C
:100F2000621013199C46A71A002253001E180223B0
:100F3000F35E634505DCBB4203DB521CD2B2042ADC
:100F4000F3D3042A42D1244BC2681A6032225A6079
:100F50009A68C2601926F601802C23DC002D02D18C
:100F60008C88B44206D3012D1CD18F8807246402DB
:100F7000A74217D20F890D242403A74212D20127BA
:100F8000FF03BA4203DA052252030A8100E00C8112
:100F90008A880C8962431A60C2685A609A688A809B
:100FA00001220270002D03D18A88B24200D98E80BE
:100FB000012D05D18B8807225202934200D98A80E5
:100FC0008B88FF224132934200D28A800021C16087
:100FD000F0BD0000D841000000000440F0B5837867
:100FE0000025102B02D38570202343704378002BFB
:100FF00007D05B1ED9B241708580002900D1828064
:10100000F0BD0389002B07D00F231B03994203D89F
:1010100001239B02994206D2057005235B030381DD
:1010200001235B034381038944891E1B8E4202DC3A
:101030001C198C4224D28478641C847084885C439C
:10104000384B1C6059609B681BB284889C4203DA51
:10105000FF34013423B204E09C4202DDFF3C013C3A
:1010600023B2934201DB144600E01C46FF264136C2
:10107000B44203DB934202DB134600E03346838035
:101080008388C488A34203D0C570C560C380F0BD07
:10109000254C264E0C19B442F9D2C478641CE4B233
:1010A000C470C6687618C6608178002901D0491ED0
:1010B0008170082CEBD3F108C1600478002C28D192
:1010C00004890126F602A71B8F4202D8A6198E4278
:1010D0001FD2144963430B60C3684B6089680BB22D
:1010E0008188994202DA40310BB203E0994201DD76
:1010F00040390BB2934201DB114600E01946FF2450
:101100004134A14203DB934202DA1A4600E0224650
:1011100082808570C570C56001210170890341819D
:10112000F0BD000000000440FFFBFFFFFFEB0000EC
:10113000F8B53E4D1922288AD20181B23C48FFF70A
:101140004DFFA88A072281B2394852021030FFF7BA
:1011500045FF37483749403000F072F83448364C84
:10116000007800281BD0324810300078002816D0B4
:101170006078002801D0401E607061780020082946
:101180000BD201212B6889026A685B189A4204DB42
:10119000AB68EA6859188A4207DA20703CE0607848
:1011A0001028EAD2401C6070E7E721780125002969
:1011B0000BD125701E49086248628862C8620863C4
:1011C00048638863C8631D490D700090184E184924
:1011D000184F403618230846F35E3A892030FFF74F
:1011E0007DFE3146009530391A230846F35E7A8930
:1011F0002030FFF773FE304620380078C00704D156
:10120000304610380078C00706D009482C214030FD
:10121000FEF791FF64207080054880886080044854
:1012200010308088A0802078F8BD000024420000A3
:1012300098410000DA4600004041000047410000AC
:10124000F8B504460020984A1278002A0BD0964A36
:1012500010321278002A06D00225655F322D0ADD91
:101260006D1E6580F8BD2C212046FEF764FFFF202F
:1012700091306080F8BDA288002A7DD0E388002BE1
:101280007AD08E89B24200D23246A2808A899342B5
:1012900000D31346E3802289002A6ED06389002B95
:1012A0006BD08E89B24200D2324622818A89934223
:1012B00000D313466381A389002B7DD0E289002AE5
:1012C0007AD00E89B34200D23346A3810B899A4269
:1012D00000D31A46E281238A002B6ED0628A002A4C
:1012E0006BD04E89B34200D2334623824B899A4257
:1012F00000D31A4662820B89626AD31863624E89F0
:10130000A26A9219A2628E89E2699219E261CE897B
:10131000226A921922626D1E2AB2628000256570CF
:10132000002AA7DC01226270A288E588521BA282F3
:1013300022896589521BE282A289E589521B228398
:10134000228A658A521B6283584A13603223536093
:1013500093686362A36A13609368A362E36913608E
:101360009368E361236A136093682362656A1215C8
:10137000954227DBA76A01E026E02AE0974221DBBD
:1013800018228E88A25E7608B24205DD1A26C98828
:10139000A65F49088E4215DC1421E669615EB446F9
:1013A00076008E46B14204DD1626A65F59008E42B5
:1013B00008DC0526760301E010E014E0B44501DC0A
:1013C000B34215DD012052E08A89A2808A89E28039
:1013D00061E7CA892281CA8962816CE70A89A28190
:1013E0000A89E28177E74A8922824A89628282E712
:1013F0000126F602B4453ADBB34238DBB1108A422B
:1014000003DD1A23E35E8B4231DC96452FDD162186
:10141000615E1A23E35E8C46994228DD6E12964285
:1014200002DC7E129E4200DD012005267603B542D5
:1014300008DD1F4E71881926B601B14202D2291269
:1014400091420CDC052149038F4209DD1849192519
:101450008E88AD01AE4203D23912994200DD0120DF
:101460005200964502DC5A00944500DD0120012817
:1014700014D02078002801D0401E20700020A080C9
:10148000E08020816081A081E081208260826062B2
:10149000A062E061206232206080F8BD20780228DE
:1014A000ECD2401C2070E9E79841000000000440A5
:1014B00040410000FEE7000004494A6A80079208A4
:1014C0009200800F02434A627047000040001540BE
:1014D000044A116A0C2380079943000F01431162EB
:1014E000704700004000154004490A6A80079208CE
:1014F0009200800F02430A627047000040001540CE
:101500000CB50749CA688968019200918100684654
:101510004058016801229203114301600CBD000094
:10152000F8390010FCB5424A0CCA01930092012818
:101530005BD8012424048A796500A60080006B46EC
:10154000012A53D0022A5CD0032A65D01A581768A2
:10155000A74317601468AC4314601468B443146064
:10156000185802684B7852085200DB07DB0F1A4309
:10157000026002680E239A438B785B071B0F1A43A5
:101580000260026810239A430B78DB07DB0E1A43D4
:101590000260026860239A434B799B075B0E1A43F3
:1015A00002600268FF2381339A430B799B07DB0DAE
:1015B0001A430260026803235B029A43CB789B07BD
:1015C0005B0D1A43026002680123DB029A430B7A27
:1015D000DB071B0D1A43026002680123C9791B0354
:1015E000C9079A43C90C0A430260FCBD1A58176820
:1015F000A74317601468AC43146014683443146044
:10160000AEE71A581768A743176014682C43146094
:101610001468B4431460A3E71A5817682743176087
:101620001468AC4314601468B443146098E7000075
:10163000F8390010FEE70000F0B504461846069D94
:10164000059B8026164F06439B00DB191E60164B38
:101650008700144EFB181E601D64144B0501EB1827
:1016600059609C6003214907D204D20C1143072220
:1016700012049143089A5207520B1143032292031A
:101680009143079A9207120C11430122520591438C
:10169000099AD207920A1143D960FFF7AFF9F0BD5A
:1016A000000120401F0200400000204000022040B6
:1016B00070470000F7B586B00F4600240020009068
:1016C0000190029003904148414E407801281AD180
:1016D000952189003046FEF72EFD24207081482098
:1016E0003081A0008019FF22313208991150C76063
:1016F000641C24B2492CF4DB0898492148437060EB
:101700004920784330600820305E316880008019BD
:101710000590C068381A0A183260049205987168FA
:10172000FF300130026B0898801A08187060294950
:10173000049A0A6049224A608A68029208608968AD
:1017400003910A21715E029B89008919CA68D21A25
:101750000092FF310131096B039A891A0191FEF75A
:1017600077FE04460D460498FEF772FE22462B468D
:10177000FEF7EAFD04460D460198FEF769FE224693
:101780002B46FEF779FDFEF791FE01900598C760A4
:101790000821715E089889008919FF3101310863B9
:1017A0003089401C00B23081492801DB00203081A3
:1017B0007089401C00B27081492801DB00207081D3
:1017C00069461EC906981EC009B0F0BD464100001A
:1017D000BC43000000000440F0B585B006460C464E
:1017E00000200021019100912A494978012945D022
:1017F000BC252A462146201DFEF776FC2146C03135
:101800002A46081DFEF770FC70682060C020316811
:10181000015100252F20401BAF00E15980000390AB
:1018200020580818FEF708FE1B49C9590291FEF717
:10183000E6FC0099FEF78AFC009038198030016CB4
:10184000039800198030006C0818FEF7F5FD029926
:10185000FEF7D5FC0199FEF779FC01906D1CEDB205
:10186000182DD7D30098FEF707FE801270600198FC
:10187000FEF702FE8012306005B0F0BD8100726894
:1018800062500919803132680A64401CC0B23028A5
:10189000F4D3BEE746410000183A0010FEB50446F6
:1018A000012000901225282084462C4E3046076FD8
:1018B000C36E416F806F3246F3677C32019357608D
:1018C0009160D060211D0EC930462668C666703012
:1018D0000EC0234F02206146385EFEF7F1FB00295F
:1018E00032D0122933DA681A00B201991223891B07
:1018F0001A4A41435E438B196C321A4909330B6013
:101900004D608B682360556953681226ED1A454374
:101910007343EB1809330B608B68636095699368B8
:10192000ED1A45437343EB1809330B608B68A360D2
:10193000D369D2689B1A4343122042439818093056
:1019400008608868E06004E00020788001E0002002
:1019500000907888123078800098FEBDA445000081
:10196000464100000000044030B58DB000240994C9
:101970000A940B940C942C4D68680690E8680590C6
:1019800028680890A868079008990698884204DD9E
:1019900008990698401A069000E006940799059861
:1019A000884204DD07990598401A059000E00594E7
:1019B0001D4905A81831FFF70FFF05A8FFF76EFFB7
:1019C000012802D000200DB030BD01A8069A05996B
:1019D000FFF770FE01A80FC80C9309AB07C30A9864
:1019E000C110124801800999C91041800C9909035E
:1019F000090C81800B990903090CC180298A018196
:101A0000A98A418129680903090C8181A968090310
:101A1000090CC1810648012101704178002900D0DC
:101A200044700120CFE7000024420000DA460000A5
:101A30004641000070B51849184B184600E02C309C
:101A40000268002AFBD0984200D92C38144C206040
:101A50000268521C0BD00022531C9E00855B520072
:101A60008D52DAB20A2AF7D32C30206070BD0020E4
:101A7000088001224A8004228A80C8800881488127
:101A8000642088815E20C8818220088232204882BA
:101A900000F008FC70BD00008041000000FE001056
:101AA0003C410000FEE7000010B586B0FEF782FF63
:101AB000FF2137482131C161816A09090901816229
:101AC000816AF0229143A0318162816A42151143FB
:101AD00081622F484030816B032212029143FF3113
:101AE00001318163816B07220902090A52068918B4
:101AF0008163816B3F2292049143152292048918DD
:101B00008163816B0122920211438163816B032205
:101B1000D20391430122120489188163816BE02270
:101B2000914340318163816B490949018163816B34
:101B3000D201914381631748C16A04221143C162F3
:101B4000C16A02242143C162C16A134A1140C162C1
:101B5000C16A18229143C1620021012001900491C1
:101B600003900B460322152009490292009020227F
:101B700098310A48FFF760FD09480168A1430160F8
:101B80000168A0221143016000F07CFB06B010BD8B
:101B900000001540400014401F00FEFF04420000FA
:101BA00000D00040FEB561484169490849004161E3
:101BB000C16A49084900C162016B490849000163D3
:101BC00001685B4A114001605A4801680424A1433E
:101BD0000160416822049143416081690822914378
:101BE0008161416AA1434162816AA1438162C16A04
:101BF000A143C162C169A143C1614E4940310A6834
:101C0000A2430A604A68A2434A608A68A2438A6083
:101C1000CA68A243CA600A69A2430A61026AA2436F
:101C20000262426863029A4342608869A043886105
:101C300004210120FEF72EFF04210120FFF7BFF849
:101C40000127684607704470022585700326C67018
:101C50000571FEF7B0FF07210320FEF71BFF684662
:101C60000670072141708770C5700571FEF7A3FFEC
:101C7000032205210120FFF785F805220621012016
:101C8000FFF780F802210320FEF704FF0221032062
:101C9000FEF7EAFE6846067045708570C6700571ED
:101CA000FEF789FF012204210220FFF76BF80421CF
:101CB0000220FEF7D9FE6846057044708570C67034
:101CC0000571FEF778FF042200210220FFF75AF881
:101CD000042201210220FFF755F8032105220846BE
:101CE000FFF750F8052204210320FFF74BF80522E7
:101CF00011460320FFF746F8052206210320FFF7CF
:101D000041F8052200210420FFF73CF805220121BB
:101D10000420FFF737F8052203210120FFF732F8EE
:101D2000052207210120FFF72DF8FEBD00D000405D
:101D3000B9F3FFFF0000144010B5FFF733FF00F0C8
:101D40009FF800F0ABF800F07BF800F035F8FFF7F3
:101D5000ABFE10BD10B5124910488860114881686B
:101D60004022914381600121084600F003FB0120DD
:101D700000F0F4FA0221084600F0FCFA022000F01C
:101D8000EDFA0021084600F0F5FA002000F0E6FA2E
:101D9000054901200860FFF765F810BDFFF7FFFF58
:101DA00000000240007000400000094010B500F043
:101DB000CFF8FEF740FE10BD70B586B00024049445
:101DC000059401940294039401256846C575032681
:101DD00006744674C47484744475847504A800F051
:101DE000DBF900F0D1F968464471C5720473C6711D
:101DF0000672057144728471847201A90020FFF794
:101E000091FB0020FFF77CFB68464571C5720473A7
:101E1000C671047205714472847184720120FFF7E7
:101E200057FB0120FFF760FB0120FFF745FB01A9ED
:101E30000120FFF777FB0120FFF762FB06B070BDC2
:101E40000EB5002000900190029064216A465181F5
:101E5000062111700C215170907001220021104652
:101E6000FEF722FC69460120FEF75CFC01217F237E
:101E700000220846FEF732FD0120FEF743FC0EBDAE
:101E8000044801214160002141618160024AC26031
:101E90000161704700000940C503000000B591B022
:101EA0000C4800900020039003216A4611723F21E4
:101EB000049104211183079005900621117150713E
:101EC0009071D071684600F007F86846FEF7E6FBAF
:101ED00011B000BD00000B400268C168916002684B
:101EE0000169D1600268416911610268018B9161E9
:101EF0000268C169D1610268016A11620268416ABF
:101F000051620268816A91620268818DD1620268C1
:101F1000016B11630268416B51630268816B9163CD
:101F20000268C16BD1630268016C11640179427966
:101F30004907D207090FD20E114382799207520E38
:101F40001143C2790068D207120E11430160704735
:101F500010B5FFF76FFD0848084902788A7082784B
:101F6000CA70027A0A71027B4A71827B8A71028A84
:101F70000A81408A488110BD80410000BC460000B3
:101F80001249CA6803231B069A4301231B06D21871
:101F9000CA6001680E4A904204D10006814212D103
:101FA000012070470A4A4C32904204D10802000CCA
:101FB00009D101207047064A121F904203D1C8017F
:101FC00001D4012070470020704700000000FF107E
:101FD000100C8010FEE7704710B5064806490068EF
:101FE000884203D90120FEF74DFB10BD0020FEF70B
:101FF00049FB10BD3841000080C3C90100B500F0A5
:1020000037F80149086000BD3841000070B500266E
:1020100004240125144A1549030000F086F905043B
:102020000A1113191D0010688008800010604E60AE
:1020300012E0106880088000401C10604E600BE0C9
:102040004D6009E008684008400008604C6003E00B
:102050000868284308604C6000200121890200BF05
:10206000401C8842FBD370BD0000144000A000401B
:1020700070B5002013494968CAB2134E134D144974
:10208000144C130000F051F908051005100D0D1C3B
:102090001C09A06BB04201D10F4870BDA16B0F4865
:1020A00070BD0120C00370BDA06BB04201D10C48CF
:1020B00070BDA06BA84201D1084670BD084670BD36
:1020C000084670BD00A00040F885000048B500003B
:1020D0000048E80180011540C0FC9B010024F40089
:1020E00080F9370310B50220FFF790FF15484168CB
:1020F0008907890F012906D040688007800F0228D0
:1021000001D0FEF741FCFFF766FFFFF777FFFFF70F
:1021100063FF0D48FFF734FF002812D00A484C3007
:10212000FFF72EFF00280CD00748001FFFF728FFFD
:10213000002806D00448F0308069044980B28863E2
:1021400010BDFEE700C00040100C8010800115405B
:102150000B4800F083F9FFF7ABFAFEF747FEFFF7F5
:10216000EBFD01F005F9FFF721FE06483E21418015
:102170006221417090218180FFF7ECFDFEE70000B5
:10218000B80B0000C84600000248816A10221143C3
:102190008162704700D0004010B5012382785B0354
:1021A0009C003749012A1BD0022A20D08A6A9A4310
:1021B0008A628A6AA2438A62012382781B039C0096
:1021C000012A1BD0022A20D08A6A9A438A628A6A2C
:1021D000A2438A628A6A5203920F012A1CD024E029
:1021E0008A6A9A438A628A6A22438A62E4E78A6A2E
:1021F0001A438A628A6AA2438A62DDE78A6A9A433C
:102200008A628A6A22438A62E4E78A6A1A438A6295
:102210008A6AA2438A62DDE78A6A0F231B029A4315
:1022200003791B071B0D1A438A628A6A03235B0426
:102230009A4343799B075B0B1A438A628A6A037845
:10224000920892009B079B0F1A438A628A6A0C23AA
:102250009A4343789B071B0F1A438A628A6A20239A
:102260009A43C379DB079B0E1A438A628A6A012369
:1022700080791B04C0079A43C00B02438A6210BDD9
:1022800000D0004010B5064C206B012108432063AC
:10229000FEF7C0FB206B40084000206310BD00002B
:1022A00040001540F8B50025104E114F3C68FEF770
:1022B000CFFB38680F492C30884203D3FEF7BCFBB4
:1022C0000D4C3C606800315A201DFEF7E1F9241DD9
:1022D0006D1CEDB20A2DF5D300213868FEF7D8F950
:1022E000241D3C60FEF7AEFBF8BD000080410000FD
:1022F0003C4100000000011000FE00102021020CF3
:1023000001D010211046020A01D0104608390209F6
:1023100001D01046091F820801D01046891E4208CC
:1023200001D0881E7047081A704730B47446641E86
:102330002578641CAB4200D21D46635D5B00E31848
:1023400030BC1847002805DBC106C90E01208840B3
:10235000014908607047000080E200E0002805DBCA
:10236000C106C90E0120884001490860704700007D
:1023700000E100E08307FF22DB0E9A408907090E87
:102380009940002808DB830809489B001818036857
:1023900093430B43036070470007000F083883081E
:1023A00004489B001818C36993430B43C3617047EB
:1023B00000E400E000ED00E0F8B50220FFF7C2FF06
:1023C000214900240C60486800280AD0400608D53E
:1023D0004A69402002434A614A6982434A61FEF7E2
:1023E00061FD1A4B1A4AD9780120012916D0194FDC
:1023F000F870194D6870B979814218DC02213E8964
:10240000695E8E4213DB7E898E4210DC697A012977
:1024100003D1B978002900D01070F8BDB82191809F
:102420000221D170547094701070DC70F8BD0028D7
:10243000FCD01879401CC0B218713228F6D31C7138
:1024400002201070F8BD0000007000401441000030
:102450005E410000BC460000C8460000F8B50446D6
:10246000104D0F4868610026AE61052028610E48B6
:10247000012700683F06009009E0AE617D21C90098
:102480000098FDF707FE381AA9698142FCD8641E3E
:10249000601CF2D12869400840002861F8BD0000A6
:1024A000FFFFFF0000E000E038410000F8B5002128
:1024B0008848C94341610024446187A000680090B6
:1024C000864DA878411CA9701E2807D9AC70844895
:1024D0000168491C0160834800F0D2FF2889542814
:1024E00073D881490A6B01231A430A6380497F4EDE
:1024F0008E60CA68520B52032032CA607D490A6856
:102500008B021A430A60002100229300F3589F04B3
:10251000BF0C79189B0B5918521C082AF5D3724A24
:10252000136B5B085B001363734B04261206402792
:10253000242819D004DC002807D0182830D10AE05C
:102540003C281CD048282BD124E06F816C705A683D
:1025500032435A6024E0694A12886A81002A1FD1F6
:102560005A68B2435A601BE06F81634B5B68B343A8
:10257000614E73605368B6143343536010E0604B90
:102580001B886B81002B0BD1536801263603B343A4
:10259000536005E06C81536801263603B3435360F2
:1025A000584A938A584A002B10D16B899C46002BBD
:1025B0000CD06B786E46F6566346F3189B041B0EE0
:1025C000002B05D0FB1AD36103E051E0D46100E099
:1025D000D4616A78521CD2B26A70042A00D36C703B
:1025E0000246113A072A03D82869401828615FE09B
:1025F00002461D3A072A03D868694018686157E007
:102600000246353A072A03D8A8694018A8614FE066
:102610000246413A072A03D8E8694018E86147E0D2
:10262000492803D0EA88002A15D041E037482969B3
:10263000016069694160AA698260EA69C26009094A
:102640000161110941612C616C61AC61EC6130493F
:10265000022008602CE0244E403E4A2809D0024661
:102660004D3A072A24D82A6A51182962542806D0DC
:102670001EE0B06A00090001C01DB06218E0C80A7F
:102680002862E860A138234900B20880102801DDE3
:10269000102008800020085E002803DA04210120B1
:1026A000FEF7E2F92C62B06A00090001C01CB062BA
:1026B0002889401C80B22881962809D32C81E8887B
:1026C000401C80B2E880E1210901884200D3EC80FF
:1026D000F8BD0000000002404000C00014410000AE
:1026E0006C4100006A4100004000154004420000B7
:1026F0000002204000002040001000404241000045
:10270000444100008041000000000B4024420000D2
:1027100000E200E054410000F8B50120FFF712FE8E
:10272000FFF722F9002841D0234F3878401CC0B26F
:102730003870C21F02242149072A00D80C700246B3
:102740000F3A0325042A00D80D700246143A0426D5
:10275000042A00D20E701A4B182804D11A78002AC5
:1027600025D000221A700246193A052A01D80522FE
:102770000A7002461F3A062A00D80E700246263A10
:10278000042A00D80D7002462B3A022A00D80C7099
:102790002D2804D900203870012008701870FEF729
:1027A000C7FC002805D0002006498872F8BD012228
:1027B000D8E70120F8E7000014410000684100005C
:1027C00064410000C846000010B501210320FEF757
:1027D00061F90322022301211046FEF783F9012249
:1027E00011460320FEF764F903210220FEF752F997
:1027F0000223032211461846FEF774F90122032131
:102800000220FEF755F901210846FEF743F90121A0
:10281000022303220846FEF765F9012211461046FD
:10282000FEF746F9012205210220FEF7ABFA02234A
:10283000032205211846FEF755F901220521022041
:10284000FEF736F907210220FEF724F902230322BE
:1028500007211846FEF746F9012207210220FEF75C
:1028600027F906210220FEF715F90223032206218B
:102870001846FEF737F9012206210220FEF718F963
:1028800000210320FEF706F903220223002110464F
:10289000FEF728F9012200210320FEF709F90221A1
:1028A0000846FEF7F7F80223032219461846FEF7FA
:1028B00019F9022101220846FEF7FAF810BD10B5F9
:1028C0000B00FFF732FD0805172A3D506376890C8F
:1028D000C00705D0012203210220FEF7E9F810BD50
:1028E000022203211046FEF7E3F803210220FEF73F
:1028F000BBF810BD4008C00705D0012211461046A4
:10290000FEF7D6F810BD012102220846FEF7D0F8E6
:1029100001210846FEF7A8F810BD8008C00705D0C1
:10292000012205210220FEF7C3F810BD0222052175
:102930001046FEF7BDF805210220FEF795F810BD00
:10294000C008C00705D0012207210220FEF7B0F819
:1029500010BD022207211046FEF7AAF80721022027
:10296000FEF782F810BD0009C00705D0012206213C
:102970000220FEF79DF810BD022206211046FEF748
:1029800097F806210220FEF76FF810BD4009C00736
:1029900005D0012200211046FEF78AF810BD022260
:1029A00000210120FEF784F800210120FEF75CF8E9
:1029B00010BD8009C00705D0012200210320FEF7C9
:1029C00077F810BD022200210320FEF771F80021E4
:1029D0000320FEF749F810BDC009C00705D0022149
:1029E00001220846FEF764F810BD02221146104687
:1029F000FEF75EF802210846FEF736F810BD10B566
:102A0000022201210320FEF753F801210320FEF7E3
:102A1000D6F910BD10B50B00FFF787FC0805172A83
:102A20003D506376890CC00705D001221146032072
:102A3000FEF73EF810BD022201210320FEF738F810
:102A400001210320FEF710F810BD4008C00705D093
:102A5000012211461046FEF72BF810BD012102227B
:102A60000846FEF725F801210846FDF7FDFF10BDD9
:102A70008008C00705D0012205210220FEF718F8C2
:102A800010BD022205211046FEF712F80521022092
:102A9000FDF7EAFF10BDC008C00705D001220721DD
:102AA0000220FEF705F810BD022207211046FDF7AF
:102AB000FFFF07210220FDF7D7FF10BD0009C00767
:102AC00005D0012206210220FDF7F2FF10BD0222EF
:102AD00006211046FDF7ECFF06210220FDF7C4FF9A
:102AE00010BD4009C00705D0012200211046FDF7A6
:102AF000DFFF10BD022200210120FDF7D9FF0021D8
:102B00000120FDF7B1FF10BD8009C00705D00122EB
:102B100000210320FDF7CCFF10BD0222002103207D
:102B2000FDF7C6FF00210320FDF79EFF10BDC00981
:102B3000C00705D0022101220846FDF7B9FF10BDEC
:102B4000022211461046FDF7B3FF02210846FDF7A9
:102B50008BFF10BD10B5022203211046FDF7A8FF20
:102B600003210220FEF72BF910BD10B50B00FFF773
:102B7000DCFB0805172A3D506376890CC00705D099
:102B8000012211460320FDF793FF10BD022201210F
:102B90000320FDF78DFF01210320FDF765FF10BD28
:102BA0004008C00705D0012203210220FDF780FF65
:102BB00010BD022203211046FDF77AFF03210220F7
:102BC000FDF752FF10BD8008C00705D00122052186
:102BD0000220FDF76DFF10BD022205211046FDF712
:102BE00067FF05210220FDF73FFF10BDC008C007A9
:102BF00005D0012207210220FDF75AFF10BD022255
:102C000007211046FDF754FF07210220FDF72CFF96
:102C100010BD0009C00705D0012206210220FDF7E2
:102C200047FF10BD022206211046FDF741FF062195
:102C30000220FDF719FF10BD4009C00705D0012291
:102C400000211046FDF734FF10BD022200210120B3
:102C5000FDF72EFF00210120FDF706FF10BD8009C2
:102C6000C00705D0012200210320FDF721FF10BD80
:102C7000022200210320FDF71BFF00210320FDF7A6
:102C8000F3FE10BDC009C00705D00221012208468D
:102C9000FDF70EFF10BD022211461046FDF708FF9A
:102CA00002210846FDF7E0FE10BD10B50121022209
:102CB0000846FDF7FDFE01210846FEF780F810BD2D
:102CC00010B50B00FFF731FB0805172A3D5063765E
:102CD000890CC00705D0012211460320FDF7E8FE4C
:102CE00010BD022201210320FDF7E2FE0121032095
:102CF000FDF7BAFE10BD4008C00705D00122032130
:102D00000220FDF7D5FE10BD022203211046FDF77B
:102D1000CFFE03210220FDF7A7FE10BD8008C007EB
:102D200005D0012211461046FDF7C2FE10BD01215B
:102D300002220846FDF7BCFE01210846FDF794FE7D
:102D400010BDC008C00705D0012207210220FDF7F1
:102D5000AFFE10BD022207211046FDF7A9FE072194
:102D60000220FDF781FE10BD0009C00705D0012239
:102D700006210220FDF79CFE10BD0222062110460E
:102D8000FDF796FE06210220FDF76EFE10BD4009FC
:102D9000C00705D0012200211046FDF789FE10BDB5
:102DA000022200210120FDF783FE00210120FDF712
:102DB0005BFE10BD8009C00705D001220021032061
:102DC000FDF776FE10BD022200210320FDF770FE04
:102DD00000210320FDF748FE10BDC009C00705D043
:102DE000022101220846FDF763FE10BD02221146B2
:102DF0001046FDF75DFE02210846FDF735FE10BDC9
:102E000010B5022205211046FDF752FE05210220D1
:102E1000FDF7D5FF10BD10B50B00FFF786FA0805CA
:102E2000172A3D506376890CC00705D00122114650
:102E30000320FDF73DFE10BD022201210320FDF716
:102E400037FE01210320FDF70FFE10BD4008C0072B
:102E500005D0012203210220FDF72AFE10BD022227
:102E600003211046FDF724FE03210220FDF7FCFD9F
:102E700010BD8008C00705D0012211461046FDF79D
:102E800017FE10BD012102220846FDF711FE0121A7
:102E90000846FDF7E9FD10BDC008C00705D00122B6
:102EA00005210220FDF704FE10BD02220521104677
:102EB000FDF7FEFD05210220FDF7D6FD10BD00093E
:102EC000C00705D0012206210220FDF7F1FD10BD4B
:102ED000022206211046FDF7EBFD06210220FDF738
:102EE000C3FD10BD4009C00705D0012200211046D6
:102EF000FDF7DEFD10BD022200210120FDF7D8FD07
:102F000000210120FDF7B0FD10BD8009C00705D0EC
:102F1000012200210320FDF7CBFD10BD022200217C
:102F20000320FDF7C5FD00210320FDF79DFD10BD29
:102F3000C009C00705D0022101220846FDF7B8FDEF
:102F400010BD022211461046FDF7B2FD02210846CF
:102F5000FDF78AFD10BD10B5022207211046FDF7CE
:102F6000A7FD07210220FDF72AFF10BD10B50B00B9
:102F7000FFF7DBF90805172A3D506376890CC00777
:102F800005D0012211460320FDF792FD10BD02225B
:102F900001210320FDF78CFD01210320FDF764FDD5
:102FA00010BD4008C00705D0012203210220FDF713
:102FB0007FFD10BD022203211046FDF779FD03219C
:102FC0000220FDF751FD10BD8008C00705D0012289
:102FD00011461046FDF76CFD10BD01210222084686
:102FE000FDF766FD01210846FDF73EFD10BDC00856
:102FF000C00705D0012205210220FDF759FD10BDB3
:10300000022205211046FDF753FD05210220FDF7A0
:103010002BFD10BD0009C00705D0012207210220A9
:10302000FDF746FD10BD022207211046FDF740FDC9
:1030300007210220FDF718FD10BD4009C00705D08B
:10304000012200211046FDF733FD10BD02220021B0
:103050000120FDF72DFD00210120FDF705FD10BD2C
:103060008009C00705D0012200210320FDF720FDC3
:1030700010BD022200210320FDF71AFD00210320CC
:10308000FDF7F2FC10BDC009C00705D002210122E6
:103090000846FDF70DFD10BD022211461046FDF752
:1030A00007FD02210846FDF7DFFC10BD10B5022226
:1030B00006211046FDF7FCFC06210220FDF77FFEED
:1030C00010BD10B50B00FFF730F90805172A3D5069
:1030D0006376890CC00705D0012211460320FDF755
:1030E000E7FC10BD022201210320FDF7E1FC0121D4
:1030F0000320FDF7B9FC10BD4008C00705D0012230
:1031000003210220FDF7D4FC10BD0222032110464A
:10311000FDF7CEFC03210220FDF7A6FC10BD8008C0
:10312000C00705D0012211461046FDF7C1FC10BDB5
:10313000012102220846FDF7BBFC01210846FDF7EC
:1031400093FC10BDC008C00705D001220521022054
:10315000FDF7AEFC10BD022205211046FDF7A8FCCC
:1031600005210220FDF780FC10BD0009C00705D035
:10317000012207210220FDF79BFC10BD022207213E
:103180001046FDF795FC07210220FDF76DFC10BDF0
:103190004009C00705D0012206210220FDF788FC66
:1031A00010BD022206211046FDF782FC06210220F6
:1031B000FDF75AFC10BD8009C00705D0012200218F
:1031C0000320FDF775FC10BD022200210320FDF74E
:1031D0006FFC00210320FDF747FC10BDC009C007AC
:1031E00005D0022101220846FDF762FC10BD022233
:1031F00011461046FDF75CFC02210846FDF734FC41
:1032000010BD10B5022200210120FDF751FC002164
:103210000120FDF7D4FD10BD10B50B00FFF785F8B8
:103220000805172A3D506376890CC00705D0012296
:1032300011460320FDF73CFC10BD022201210320B2
:10324000FDF736FC01210320FDF70EFC10BD400800
:10325000C00705D0012203210220FDF729FC10BD83
:10326000022203211046FDF723FC03210220FDF773
:10327000FBFB10BD8008C00705D001221146104697
:10328000FDF716FC10BD012102220846FDF710FCD7
:1032900001210846FDF7E8FB10BDC008C00705D0B6
:1032A000012205210220FDF703FC10BD02220521A9
:1032B0001046FDF7FDFB05210220FDF7D5FB10BDF3
:1032C0000009C00705D0012207210220FDF7F0FB0D
:1032D00010BD022207211046FDF7EAFB072102205C
:1032E000FDF7C2FB10BD4009C00705D00122062131
:1032F0000220FDF7DDFB10BD022206211046FDF77E
:10330000D7FB06210220FDF7AFFB10BD8009C007E7
:1033100005D0012200211046FDF7CAFB10BD022294
:1033200000210120FDF7C4FB00210120FDF79CFBDB
:1033300010BDC009C00705D0022101220846FDF7D3
:10334000B7FB10BD022211461046FDF7B1FB02216A
:103350000846FDF789FB10BD10B5022200210320AD
:10336000FDF7A6FB00210320FDF729FD10BD00009D
:1033700010B5FFF729FA034900200860891E08806C
:1033800010BD00006C41000070B50F2920D83B4BE8
:10339000002A03D05A5C55066D0E00E05D5C0F29D3
:1033A00003D18021C9430D43EDB20300FEF7BDFFF9
:1033B0000805111D2935414D591000242146284684
:1033C000FFF77DFA641CE4B2082CF7D3FFF717FB74
:1033D00070BD002421462846FFF71CFB641CE4B2A4
:1033E000082CF7D3FFF7B6FB70BD00242146284612
:1033F000FFF7BBFB641CE4B2082CF7D3FFF755FCC6
:1034000070BD002421462846FFF75AFC641CE4B234
:10341000082CF7D3FFF7F4FC70BD002421462846A2
:10342000FFF7F9FC641CE4B2082CF7D3FFF793FD17
:1034300070BD002421462846FFF798FD641CE4B2C5
:10344000082CF7D3FFF732FE70BD00242146284632
:10345000FFF737FE641CE4B2082CF7D3FFF7D1FE68
:1034600070BD002421462846FFF7D6FE641CE4B256
:10347000082CF7D3FFF770FF70BD0000704100000B
:10348000FEB504468F4D20888C4A2E46811A8C4FFB
:10349000083690426FD00FDC8B49421A884232D0F6
:1034A00005DC002814D08949C8420DD11AE0072A4A
:1034B0004CD0152A08D170E00A297CD00F297BD086
:1034C00013297AD0162979D0002020800320FEBD50
:1034D000012038560A21FCF7F3FDA870E9707A48FC
:1034E000801F20803068002843D0401E30600022BA
:1034F0000F211046FFF748FF0022A9781046FFF77A
:1035000043FF714820803068002835D0401E30606D
:1035100000220F210120FFF737FF0022E978012068
:10352000FFF732FF0220385E6421FCF7C9FD0191EC
:1035300068700A210198FCF7C3FDA8700A21019860
:10354000FCF7BEFDE9709D20C00020803068002897
:1035500014D0401E30606878002811D000220F215E
:103560000220FFF711FF012269780220FFF70CFF0C
:1035700010E00020FEBD26E00020FBE70020F9E778
:1035800000220F210220FFF7FFFE01220F2102205F
:10359000FFF7FAFE4948001F2080306800287DD0E0
:1035A000401E306000220F210320FFF7EDFE0122B4
:1035B000A978032003E02CE03DE04EE05FE0FFF758
:1035C000E3FE3E482080306800286DD0401E306009
:1035D00000220F210420FFF7D7FE0122E978042002
:1035E000FFF7D2FE0420385E6421FCF769FDC7B204
:1035F00000916F700A210098FCF762FDA8700A2103
:103600000098FCF75DFDE970002F11D02B480A30BF
:1036100020803068002849D0401E306000220F21F1
:103620000520FFF7B1FE002269780520FFF7ACFE08
:1036300022480F3020803068002839D0401E30608A
:1036400000220F210620FFF79FFE0022A978062006
:10365000FFF79AFE1948133020803068002829D0DF
:10366000401E306000220F210720FFF78DFE01224F
:10367000E9780720FFF788FE51200001208030689C
:10368000002819D0401E30602978287900F020F8F1
:103690002978287900F01CF8002001E002E003E01E
:1036A000208067E7002065E7002063E7002061E7EE
:1036B00000205FE700205DE700205BE7FA040000E0
:1036C000C846000064410000E104000025FBFFFF44
:1036D00010B50C460300FEF728FE0705336495CAB3
:1036E000FEFD3200012211460320FDF7E1F901221F
:1036F00003210220FDF7DCF9012211461046FDF7F7
:10370000D7F9012205210220FDF7D2F90122072174
:103710000220FDF7CDF9012206210220FDF7C8F9AC
:10372000012200211046FDF7C3F9012200210320E8
:10373000FDF7BEF9022101220846FDF7B9F94FE174
:10374000012211460320FDF7B3F9012203210220D3
:10375000FDF7AEF9012211461046FDF7A9F9012245
:1037600005210220FDF7A4F9012207210220FDF71F
:103770009FF9012206210220FDF79AF90222114643
:103780001046FDF795F902210846FDF76DF9022272
:1037900000210320FDF78CF900210320FDF70FFB2A
:1037A0001EE1022201210320FDF782F901210320FD
:1037B000FDF75AF9012203210220FDF779F90122D0
:1037C00011461046FDF774F9012205210220FDF78C
:1037D0006FF9012207210220FDF76AF90122062173
:1037E0000220FDF765F9012200210320FDF760F9B1
:1037F000022211461046FDF75BF902210846FDF74B
:10380000DEFAEDE0022201210320FDF751F901214A
:103810000320FDF729F9022203211046FDF748F99C
:1038200003210220FDF720F9012211461046FDF781
:103830003FF9012205210220FDF73AF90122072173
:103840000220FDF735F9012206210220FDF730F9AB
:10385000012200210320FDF72BF902221146104618
:10386000FDF726F902210846FDF7A9FAB8E0022281
:1038700001210320FDF71CF901210320FDF7F4F8D5
:10388000022203211046FDF713F903210220FDF760
:10389000EBF8012102220846FDF70AF9012108464A
:1038A000FDF7E2F8012205210220FDF701F90122CE
:1038B00007210220FDF7FCF8012206210220FDF776
:1038C000F7F8012200210320FDF7F2F80222114649
:1038D000104601E044E006E0FDF7EAF80221084660
:1038E000FDF76DFA7CE0022201210320FDF7E0F8EC
:1038F00001210320FDF7B8F8022203211046FDF74D
:10390000D7F803210220FDF7AFF801210222084673
:10391000FDF7CEF801210846FDF7A6F802220521A1
:103920001046FDF7C5F805210220FDF79DF801229C
:1039300007210220FDF7BCF8012206210220FDF735
:10394000B7F8012200210320FDF7B2F80222114648
:103950001046FDF7ADF802210846FDF730FA3FE0CA
:10396000022201210320FDF7A3F801210320FDF726
:103970007BF8022203211046FDF79AF8032102206A
:10398000FDF772F8012102220846FDF791F80121A6
:103990000846FDF769F8022205211046FDF788F870
:1039A00005210220FDF760F8022207211046FDF7ED
:1039B0007FF807210220FDF757F801220621022097
:1039C000FDF776F8012200210320FDF771F80222AD
:1039D00011461046FDF76CF802210846FDF7EFF995
:1039E000002C08D0022206211046FDF761F80621BE
:1039F0000220FDF739F810BD680015406C00154035
:103A0000680015406C001540680015406C001540BA
:103A1000680015406C001540F3336E3C4B7E5BBE76
:103A200037C711BF85CC86BF520EB7BFC2CBAABF66
:103A30008F50C7BE47C4C83F9EFB87403C11D9404A
:103A40000393FA40E5B1BF402C53E23E5B3D06C113
:103A5000946993C15E63D0C1EECAD6C1424087C1AA
:103A600070ECB8408FB02042A1C1A3420BA9F7422D
:103A700002E71D4357003143000000000000000032
:103A80000000000000000000000000000000000036
:103A900000000000000000003A490A680A683A4B3A
:103AA0001A4002430A60704772B63649CA68032357
:103AB0001B069A43CA60CA684005D20AD202400D6A
:103AC0000243CA6008690122104308614869400343
:103AD000FCD462B6704710B572B62A4AD368032484
:103AE0002406A343D36001605069C003FCD462B6CE
:103AF00010BD70B504460022501E062C27D821495F
:103B0000CB6803252D06AB4301252D065B19CB6041
:103B1000CB68DB0ADB022343CB600B6901252B4317
:103B20000B614B695B03FCD4002163022124E40593
:103B300001256D025E1836193668761C01D0521CBC
:103B4000D2B2091DA942F5DB002A00D1002070BDC8
:103B500010B503229202904212D80A4AD368032475
:103B60002406A343012424061B19D3602123DB056B
:103B7000C01801605069C003FCD450698003F9D4B7
:103B800010BD00000000FF10F0FF00000000000169
:103B90000000E80D00000000000000000000000030
:103BA0000000000000000000000000000000000015
:103BB0000024F40000FE00100000800C000E000144
:103BC0000000000000000000000000000F000000E6
:103BD00000000000000000000000000001000000E4
:103BE0000000000000000000C0F9A4B0999282F823
:083BF00080908883C6A1868E37
:040000051000004D9A
:00000001FF
